{
  "contractName": "AronToken",
  "abi": [
    {
      "constant": true,
      "inputs": [],
      "name": "totalSupply",
      "outputs": [
        {
          "name": "",
          "type": "uint256"
        }
      ],
      "payable": false,
      "stateMutability": "view",
      "type": "function"
    },
    {
      "inputs": [],
      "payable": false,
      "stateMutability": "nonpayable",
      "type": "constructor"
    }
  ],
  "bytecode": "0x60606040523415600e57600080fd5b620f4240600081905550609c806100266000396000f300606060405260043610603f576000357c0100000000000000000000000000000000000000000000000000000000900463ffffffff16806318160ddd146044575b600080fd5b3415604e57600080fd5b6054606a565b6040518082815260200191505060405180910390f35b600054815600a165627a7a72305820f849e68b3dea6eac12a672e000e97e01108cc7ea6d1e2f8b6334974db33789eb0029",
  "source": "pragma solidity ^0.4.17;\n\n\ncontract AronToken {\n    //Constructor\n    // Set the total number of tokens\n    // Read the total number of tokens\n\n    uint256 public totalSupply;\n\n    function AronToken() public {\n        totalSupply = 1000000;\n    }\n}\n",
  "sourcePath": "/Users/andeladeveloper/eth-project/contracts/AronToken.sol",
  "compiler": {
    "name": "solc",
    "version": "0.4.21+commit.dfe3193c.Emscripten.clang"
  },
  "schemaVersion": "2.0.0",
  "updatedAt": "2018-04-22T11:21:08.716Z"
}